{
  "_format": "hh3-artifact-1",
  "contractName": "ProofStorage",
  "sourceName": "contracts/ProofStorage.sol",
  "abi": [
    {
      "inputs": [],
      "stateMutability": "nonpayable",
      "type": "constructor"
    },
    {
      "inputs": [],
      "name": "CidEmpty",
      "type": "error"
    },
    {
      "inputs": [],
      "name": "HashEmpty",
      "type": "error"
    },
    {
      "inputs": [],
      "name": "NotOwner",
      "type": "error"
    },
    {
      "inputs": [
        {
          "internalType": "string",
          "name": "uuid",
          "type": "string"
        }
      ],
      "name": "UuidAlreadyExists",
      "type": "error"
    },
    {
      "inputs": [
        {
          "internalType": "string",
          "name": "uuid",
          "type": "string"
        }
      ],
      "name": "UuidInvalidLength",
      "type": "error"
    },
    {
      "inputs": [
        {
          "internalType": "string",
          "name": "uuid",
          "type": "string"
        }
      ],
      "name": "UuidNotFound",
      "type": "error"
    },
    {
      "anonymous": false,
      "inputs": [
        {
          "indexed": true,
          "internalType": "address",
          "name": "sender",
          "type": "address"
        },
        {
          "indexed": false,
          "internalType": "string",
          "name": "uuid",
          "type": "string"
        },
        {
          "indexed": false,
          "internalType": "string",
          "name": "hash",
          "type": "string"
        },
        {
          "indexed": false,
          "internalType": "string",
          "name": "cid",
          "type": "string"
        }
      ],
      "name": "ProofStored",
      "type": "event"
    },
    {
      "inputs": [],
      "name": "UUID_LENGTH",
      "outputs": [
        {
          "internalType": "uint256",
          "name": "",
          "type": "uint256"
        }
      ],
      "stateMutability": "view",
      "type": "function"
    },
    {
      "inputs": [
        {
          "internalType": "string",
          "name": "uuid",
          "type": "string"
        }
      ],
      "name": "getProofByUuid",
      "outputs": [
        {
          "components": [
            {
              "internalType": "string",
              "name": "hash",
              "type": "string"
            },
            {
              "internalType": "string",
              "name": "cid",
              "type": "string"
            }
          ],
          "internalType": "struct ProofStorage.Proof",
          "name": "",
          "type": "tuple"
        }
      ],
      "stateMutability": "view",
      "type": "function"
    },
    {
      "inputs": [],
      "name": "owner",
      "outputs": [
        {
          "internalType": "address",
          "name": "",
          "type": "address"
        }
      ],
      "stateMutability": "view",
      "type": "function"
    },
    {
      "inputs": [
        {
          "components": [
            {
              "internalType": "string",
              "name": "uuid",
              "type": "string"
            },
            {
              "internalType": "string",
              "name": "hash",
              "type": "string"
            },
            {
              "internalType": "string",
              "name": "cid",
              "type": "string"
            }
          ],
          "internalType": "struct ProofStorage.ProofEntry[]",
          "name": "proofEntries",
          "type": "tuple[]"
        }
      ],
      "name": "storeProofs",
      "outputs": [],
      "stateMutability": "nonpayable",
      "type": "function"
    }
  ],
  "bytecode": "0x60a0604052348015600e575f5ffd5b50336080526080516109156100305f395f81816083015260e801526109155ff3fe608060405234801561000f575f5ffd5b506004361061004a575f3560e01c8063261914131461004e5780632b886c81146100635780638da5cb5b1461007e578063f9b889cd146100bd575b5f5ffd5b61006161005c36600461050d565b6100dd565b005b61006b602481565b6040519081526020015b60405180910390f35b6100a57f000000000000000000000000000000000000000000000000000000000000000081565b6040516001600160a01b039091168152602001610075565b6100d06100cb366004610592565b61022d565b6040516100759190610673565b336001600160a01b037f00000000000000000000000000000000000000000000000000000000000000001614610126576040516330cd747160e01b815260040160405180910390fd5b5f5b818110156102285736838383818110610143576101436106b4565b905060200281019061015591906106c8565b905061021f61016482806106e6565b8080601f0160208091040260200160405190810160405280939291908181526020018383808284375f920191909152506101a59250505060208401846106e6565b8080601f0160208091040260200160405190810160405280939291908181526020018383808284375f920191909152506101e69250505060408501856106e6565b8080601f0160208091040260200160405190810160405280939291908181526020018383808284375f920191909152506103c092505050565b50600101610128565b505050565b60408051808201909152606080825260208201525f5f836040516102519190610730565b90815260200160405180910390206040518060400160405290815f8201805461027990610746565b80601f01602080910402602001604051908101604052809291908181526020018280546102a590610746565b80156102f05780601f106102c7576101008083540402835291602001916102f0565b820191905f5260205f20905b8154815290600101906020018083116102d357829003601f168201915b5050505050815260200160018201805461030990610746565b80601f016020809104026020016040519081016040528092919081815260200182805461033590610746565b80156103805780601f1061035757610100808354040283529160200191610380565b820191905f5260205f20905b81548152906001019060200180831161036357829003601f168201915b5050505050815250509050805f0151515f036103ba578260405163192cd6d560e01b81526004016103b1919061077e565b60405180910390fd5b92915050565b60248351146103e45782604051630b4b124b60e31b81526004016103b1919061077e565b5f836040516103f39190610730565b908152604051908190036020019020805461040d90610746565b15905061042f5782604051631be2d31760e31b81526004016103b1919061077e565b81515f0361045057604051631e0fa34560e21b815260040160405180910390fd5b80515f036104715760405163c4ce4e0160e01b815260040160405180910390fd5b6040518060400160405280838152602001828152505f846040516104959190610730565b908152604051908190036020019020815181906104b290826107e2565b50602082015160018201906104c790826107e2565b50506040513391507f927caeba5d0a41870c83004d34372552f8a7188df172402d290725f20bdc8576906105009086908690869061089d565b60405180910390a2505050565b5f5f6020838503121561051e575f5ffd5b823567ffffffffffffffff811115610534575f5ffd5b8301601f81018513610544575f5ffd5b803567ffffffffffffffff81111561055a575f5ffd5b8560208260051b840101111561056e575f5ffd5b6020919091019590945092505050565b634e487b7160e01b5f52604160045260245ffd5b5f602082840312156105a2575f5ffd5b813567ffffffffffffffff8111156105b8575f5ffd5b8201601f810184136105c8575f5ffd5b803567ffffffffffffffff8111156105e2576105e261057e565b604051601f8201601f19908116603f0116810167ffffffffffffffff811182821017156106115761061161057e565b604052818152828201602001861015610628575f5ffd5b816020840160208301375f91810160200191909152949350505050565b5f81518084528060208401602086015e5f602082860101526020601f19601f83011685010191505092915050565b602081525f82516040602084015261068e6060840182610645565b90506020840151601f198483030160408501526106ab8282610645565b95945050505050565b634e487b7160e01b5f52603260045260245ffd5b5f8235605e198336030181126106dc575f5ffd5b9190910192915050565b5f5f8335601e198436030181126106fb575f5ffd5b83018035915067ffffffffffffffff821115610715575f5ffd5b602001915036819003821315610729575f5ffd5b9250929050565b5f82518060208501845e5f920191825250919050565b600181811c9082168061075a57607f821691505b60208210810361077857634e487b7160e01b5f52602260045260245ffd5b50919050565b602081525f6107906020830184610645565b9392505050565b601f82111561022857805f5260205f20601f840160051c810160208510156107bc5750805b601f840160051c820191505b818110156107db575f81556001016107c8565b5050505050565b815167ffffffffffffffff8111156107fc576107fc61057e565b6108108161080a8454610746565b84610797565b6020601f821160018114610842575f831561082b5750848201515b5f19600385901b1c1916600184901b1784556107db565b5f84815260208120601f198516915b828110156108715787850151825560209485019460019092019101610851565b508482101561088e57868401515f19600387901b60f8161c191681555b50505050600190811b01905550565b606081525f6108af6060830186610645565b82810360208401526108c18186610645565b905082810360408401526108d58185610645565b969550505050505056fea264697066735822122077575a9d2500bc8d29c8dd2e0579b00e732d8c22899feeb5df00b5715a9a2b1b64736f6c634300081c0033",
  "linkReferences": {},
  "deployedLinkReferences": {},
  "immutableReferences": {
    "6": [
      {
        "length": 32,
        "start": 131
      },
      {
        "length": 32,
        "start": 232
      }
    ]
  },
  "inputSourceName": "project/contracts/ProofStorage.sol",
  "buildInfoId": "solc-0_8_28-7b6ba1e79f544e19e253bd4fa195dcdb5aced846"
}