{
  "_format": "hh3-artifact-1",
  "contractName": "ProofStorage",
  "sourceName": "contracts/ProofStorage.sol",
  "abi": [
    {
      "inputs": [],
      "stateMutability": "nonpayable",
      "type": "constructor"
    },
    {
      "inputs": [],
      "name": "CidEmpty",
      "type": "error"
    },
    {
      "inputs": [
        {
          "internalType": "string",
          "name": "hash",
          "type": "string"
        }
      ],
      "name": "HashAlreadyExists",
      "type": "error"
    },
    {
      "inputs": [],
      "name": "HashEmpty",
      "type": "error"
    },
    {
      "inputs": [
        {
          "internalType": "string",
          "name": "hash",
          "type": "string"
        }
      ],
      "name": "HashNotFound",
      "type": "error"
    },
    {
      "inputs": [],
      "name": "NotOwner",
      "type": "error"
    },
    {
      "anonymous": false,
      "inputs": [
        {
          "indexed": true,
          "internalType": "address",
          "name": "sender",
          "type": "address"
        },
        {
          "indexed": false,
          "internalType": "string",
          "name": "hash",
          "type": "string"
        },
        {
          "indexed": false,
          "internalType": "string",
          "name": "cid",
          "type": "string"
        }
      ],
      "name": "ProofStored",
      "type": "event"
    },
    {
      "inputs": [
        {
          "internalType": "string",
          "name": "hash",
          "type": "string"
        }
      ],
      "name": "getCidByHash",
      "outputs": [
        {
          "internalType": "string",
          "name": "",
          "type": "string"
        }
      ],
      "stateMutability": "view",
      "type": "function"
    },
    {
      "inputs": [],
      "name": "owner",
      "outputs": [
        {
          "internalType": "address",
          "name": "",
          "type": "address"
        }
      ],
      "stateMutability": "view",
      "type": "function"
    },
    {
      "inputs": [
        {
          "components": [
            {
              "internalType": "string",
              "name": "hash",
              "type": "string"
            },
            {
              "internalType": "string",
              "name": "cid",
              "type": "string"
            }
          ],
          "internalType": "struct ProofStorage.Proof[]",
          "name": "proofs",
          "type": "tuple[]"
        }
      ],
      "name": "storeProofs",
      "outputs": [],
      "stateMutability": "nonpayable",
      "type": "function"
    }
  ],
  "bytecode": "0x60a0604052348015600e575f5ffd5b503360805260805161075a6100315f395f8181608601526101a6015261075a5ff3fe608060405234801561000f575f5ffd5b506004361061003f575f3560e01c806322c61d67146100435780635dce060c1461006c5780638da5cb5b14610081575b5f5ffd5b6100566100513660046103bc565b6100c0565b604051610063919061049d565b60405180910390f35b61007f61007a3660046104b6565b61019b565b005b6100a87f000000000000000000000000000000000000000000000000000000000000000081565b6040516001600160a01b039091168152602001610063565b60605f5f836040516100d29190610527565b908152602001604051809103902080546100eb9061053d565b80601f01602080910402602001604051908101604052809291908181526020018280546101179061053d565b80156101625780601f1061013957610100808354040283529160200191610162565b820191905f5260205f20905b81548152906001019060200180831161014557829003601f168201915b5050505050905080515f036101955782604051634966641f60e11b815260040161018c919061049d565b60405180910390fd5b92915050565b336001600160a01b037f000000000000000000000000000000000000000000000000000000000000000016146101e4576040516330cd747160e01b815260040160405180910390fd5b5f5b818110156102a5573683838381811061020157610201610575565b90506020028101906102139190610589565b905061029c61022282806105a7565b8080601f0160208091040260200160405190810160405280939291908181526020018383808284375f920191909152506102639250505060208401846105a7565b8080601f0160208091040260200160405190810160405280939291908181526020018383808284375f920191909152506102aa92505050565b506001016101e6565b505050565b81515f036102cb57604051631e0fa34560e21b815260040160405180910390fd5b80515f036102ec5760405163c4ce4e0160e01b815260040160405180910390fd5b5f826040516102fb9190610527565b908152602001604051809103902080546103149061053d565b159050610336578160405163c994cea560e01b815260040161018c919061049d565b805f836040516103469190610527565b90815260200160405180910390209081610360919061063c565b50336001600160a01b03167f123880985bdb1d17f3444925e4aba81afb801d29688804334c508a9d33339a5c838360405161039c9291906106f7565b60405180910390a25050565b634e487b7160e01b5f52604160045260245ffd5b5f602082840312156103cc575f5ffd5b813567ffffffffffffffff8111156103e2575f5ffd5b8201601f810184136103f2575f5ffd5b803567ffffffffffffffff81111561040c5761040c6103a8565b604051601f8201601f19908116603f0116810167ffffffffffffffff8111828210171561043b5761043b6103a8565b604052818152828201602001861015610452575f5ffd5b816020840160208301375f91810160200191909152949350505050565b5f81518084528060208401602086015e5f602082860101526020601f19601f83011685010191505092915050565b602081525f6104af602083018461046f565b9392505050565b5f5f602083850312156104c7575f5ffd5b823567ffffffffffffffff8111156104dd575f5ffd5b8301601f810185136104ed575f5ffd5b803567ffffffffffffffff811115610503575f5ffd5b8560208260051b8401011115610517575f5ffd5b6020919091019590945092505050565b5f82518060208501845e5f920191825250919050565b600181811c9082168061055157607f821691505b60208210810361056f57634e487b7160e01b5f52602260045260245ffd5b50919050565b634e487b7160e01b5f52603260045260245ffd5b5f8235603e1983360301811261059d575f5ffd5b9190910192915050565b5f5f8335601e198436030181126105bc575f5ffd5b83018035915067ffffffffffffffff8211156105d6575f5ffd5b6020019150368190038213156105ea575f5ffd5b9250929050565b601f8211156102a557805f5260205f20601f840160051c810160208510156106165750805b601f840160051c820191505b81811015610635575f8155600101610622565b5050505050565b815167ffffffffffffffff811115610656576106566103a8565b61066a81610664845461053d565b846105f1565b6020601f82116001811461069c575f83156106855750848201515b5f19600385901b1c1916600184901b178455610635565b5f84815260208120601f198516915b828110156106cb57878501518255602094850194600190920191016106ab565b50848210156106e857868401515f19600387901b60f8161c191681555b50505050600190811b01905550565b604081525f610709604083018561046f565b828103602084015261071b818561046f565b9594505050505056fea2646970667358221220f7706b16ce99f895a519c8b8db74aa4f09cbac8d2bab72388a43463d7594eca264736f6c634300081c0033",
  "linkReferences": {},
  "deployedLinkReferences": {},
  "immutableReferences": {
    "3": [
      {
        "length": 32,
        "start": 134
      },
      {
        "length": 32,
        "start": 422
      }
    ]
  },
  "inputSourceName": "project/contracts/ProofStorage.sol",
  "buildInfoId": "solc-0_8_28-d1770e1f1b223180f0599c8b8752cf412e8a6fde"
}